:020000040800F2
:10000000700602207D0200088502000887020008B1
:10001000890200088B0200088D0200080000000021
:100020000000000000000000000000008F02000837
:1000300091020008000000009302000895020008E9
:10004000970200089702000897020008970200082C
:10005000970200089702000897020008970200081C
:10006000970200089702000897020008970200080C
:1000700097020008970200089702000897020008FC
:1000800097020008970200089702000897020008EC
:1000900097020008970200089702000897020008DC
:1000A00097020008970200089702000897020008CC
:1000B00097020008970200089702000897020008BC
:1000C00097020008970200089702000897020008AC
:1000D000970200089702000897020008970200089C
:1000E000970200089702000897020008970200088C
:1000F000970200089702000897020008970200087C
:10010000970200089702000897020008970200086B
:10011000970200089702000897020008970200085B
:10012000970200089702000897020008970200084B
:10013000970200089702000897020008970200083B
:10014000970200089702000897020008970200082B
:10015000970200089702000897020008970200081B
:10016000970200089702000897020008970200080B
:10017000970200089702000897020008000000009C
:1001800097020008970200089702000897020008EB
:1001900097020008970200089702000897020008DB
:1001A00097020008970200089702000897020008CB
:1001B00097020008970200089702000897020008BB
:1001C000970200089702000800000000970200084C
:1001D000970200089702000897020008970200089B
:1001E000970200089702000897020008970200088B
:1001F000970200089702000800F002F800F02EF8BD
:100200000AA090E8000C82448344AAF10107DA4571
:1002100001D100F023F8AFF2090EBAE80F0013F095
:10022000010F18BFFB1A43F00103184774020000C6
:10023000840200000023002400250026103A28BF75
:1002400078C1FBD8520728BF30C148BF0B60704748
:100250001FB500F017F91FBD10B510BD00F031F843
:100260001146FFF7F5FF00F0C7F800F04FF803B4B0
:10027000FFF7F2FF03BC00F057F800000948804781
:1002800009480047FEE7FEE7FEE7FEE7FEE7FEE778
:10029000FEE7FEE7FEE7FEE704480549054A064B90
:1002A0007047000039030008F901000870000220BF
:1002B0007006022070020220700202207047704710
:1002C0007047754600F02CF8AE4605006946534667
:1002D00020F00700854618B020B5FFF7DDFFBDE828
:1002E00020404FF000064FF000074FF000084FF09D
:1002F000000BAC46ACE8C009ACE8C009ACE8C009EA
:10030000ACE8C00921F007018D46704710B50446DE
:10031000AFF300802046BDE81040FFF7A8BF000003
:10032000004870470000022001491820ABBEFEE7DC
:1003300026000200704700000248016841F4700185
:100340000160704788ED00E00B4801680160C168FA
:1003500041F00061C160D0F8001841F4A031C0F84C
:100360000018D0F8001CC0F8001C0448016841F0D7
:1003700028510160704700BF000802400C14024081
:10038000411E3C484160002181600168C903FCD5E1
:10039000704700BF10B504462CB14FF47A50FFF7F8
:1003A000EFFF013CF8E710BD10B5124C4FF6FF729D
:1003B000216891432160216841F080012160FFF7AD
:1003C000E9FF20686FF30F00206010BD10B5094CE5
:1003D0004FF6FF71206888432060206840F48070E9
:1003E000206040F6B830FFF7D5FF20686FF30F00AC
:1003F000206010BD141002401D48016841F0FF014B
:100400000160FFF7A1FF1B486FF07F411A4C1B4DA5
:100410001B4E416005210160605910F40050F060EE
:10042000206800F480503060216801F40051716050
:10043000216801F48041B16002D0FFF7C7FF306846
:10044000B0F5805F03D14FF47A70FFF7ADFF7068AD
:10045000B0F5005F03D140F2DC50FFF7A5FFB068B4
:10046000B0F5804FD8D14FF4FA60FFF79DFFD3E786
:100470003038024010E000E01014024000F4FFFFAA
:1004800060000220F1EE100A4FF6FF71C0F2C03199
:1004900020EA010040F04070E1EE100A70470000D1
:1004A000B0040008000002207006000034020008BA
:040000050800027D70
:00000001FF
